:020000040800F2
:1000000000300020A90700087107000873070008E6
:10001000750700087707000879070008000000004E
:100020000000000000000000000000003122000875
:100030007B07000800000000D122000835230008DB
:10004000F9070008F9070008F9070008F907000890
:10005000F9070008F9070008F9070008F907000880
:10006000F9070008F9070008F9070008F907000870
:10007000F9070008F9070008F9070008F907000860
:10008000F9070008F9070008F9070008F907000850
:10009000F9070008F9070008F9070008F907000840
:1000A000F90700087D070008F9070008F9070008AC
:1000B000F9070008F907000800000000F907000828
:1000C000F90700080000000000000000F907000820
:1000D00000000000F9070008F9070008F907000808
:1000E000F9070008F9070008000000000000000000
:1000F0000000000000000000000000000000000000
:1001000000000000000000000000000000000000EF
:100110000000000000000000F9070008F9070008CF
:1001200000000000000000000000000000000000CF
:1001300000000000000000000000000000000000BF
:10014000F9070008F907000800000000000000009F
:10015000000000000000000000000000000000009F
:10016000000000000000000000000000000000008F
:10017000000000000000000000000000000000007F
:0801800000000000F90700086F
:1001900010B5054C237833B9044B13B10448AFF3C1
:1001A00000800123237010BD3C04002000000000EB
:1001B0007C3D000808B5034B1BB103490348AFF36E
:1001C000008008BD00000000400400207C3D0008C5
:1001D000844641EA000313F003036DD1403A41D352
:1001E00051F8043B40F8043B51F8043B40F8043B11
:1001F00051F8043B40F8043B51F8043B40F8043B01
:1002000051F8043B40F8043B51F8043B40F8043BF0
:1002100051F8043B40F8043B51F8043B40F8043BE0
:1002200051F8043B40F8043B51F8043B40F8043BD0
:1002300051F8043B40F8043B51F8043B40F8043BC0
:1002400051F8043B40F8043B51F8043B40F8043BB0
:1002500051F8043B40F8043B51F8043B40F8043BA0
:10026000403ABDD2303211D351F8043B40F8043B40
:1002700051F8043B40F8043B51F8043B40F8043B80
:1002800051F8043B40F8043B103AEDD20C3205D350
:1002900051F8043B40F8043B043AF9D2043208D048
:1002A000D2071CBF11F8013B00F8013B01D30B88BA
:1002B00003806046704700BF082A13D38B078DD098
:1002C00010F003038AD0C3F10403D21ADB071CBF6A
:1002D00011F8013B00F8013B80D331F8023B20F8D4
:1002E000023B7BE7043AD9D3013A11F8013B00F80D
:1002F000013BF9D20B7803704B7843708B78837095
:100300006046704784B00F4B5A6942F480025A61CC
:100310005A6902F480020192019A5A6942F4003249
:100320005A615A6902F400320292029A5A6942F4FE
:1003300080225A615B6903F480230393039B04B01A
:10034000704700BF0010024008B50948094B036020
:100350001023436000238360C3600361436103761D
:1003600043768376C3760377437700F06BFA08BD54
:100370005C0400200064004038B50D4C0D4B236038
:100380000D4B63600025A5600123E3602561656175
:10039000A561E5612562204600F012FC2946204651
:1003A00000F06CFC2946204600F096FC38BD00BFEA
:1003B00084040020005400400E09002008B50E48B7
:1003C0000E4B03604FF482734360002383604FF44D
:1003D0004072C260036143614FF40072826128225F
:1003E000C2610362436283620722C262036308231D
:1003F000436301F0D9F908BDD0040020003001406A
:1004000008B50948094B03604FF4165343600023B5
:100410008360C36003610C2242618361C361036234
:10042000436201F041FD08BD340500200038014061
:1004300008B5012001F028FEFBE730B597B0002495
:100440000F9412940794089409940A940B940194BD
:100450000294039404940594069403230C934FF49C
:1004600080330D930E9401221092102211920225D6
:10047000139514934FF4E01315930CA800F058FC57
:100480000F230793089509944FF480630A930B9404
:10049000294607A800F09EFF2123019303940494AA
:1004A00001A801F0BBF817B030BD000008B500F09E
:1004B000A5F9FFF7C2FFFFF725FFFFF745FFFFF79D
:1004C0005BFFFFF77BFFFFF79BFF01F01FFD054A76
:1004D0000021054801F062FD044B186001F038FD71
:1004E000FEE700BFA03D00083104000858040020CA
:1004F00008B50268034B9A4200D008BD00F090F99D
:10050000FBE700BF002C014000B583B00D4B9A699A
:1005100042F001029A619A6902F001020092009A87
:10052000DA6942F08052DA61DB6903F080530193AB
:10053000019B00220F216FF0010000F03BFA03B095
:100540005DF804FB0010024000B589B0002303935E
:1005500004930593069307930268154B9A4202D0C1
:1005600009B05DF804FB03F5D633DA6942F0007296
:10057000DA61DA6902F000720192019A5A6942F472
:1005800000325A615B6903F400330293029B4FF41B
:10059000C05303930223049300230593032306937C
:1005A0000923079303A94FF0904000F045FAD7E7DD
:1005B0000064004010B588B00023039304930593B2
:1005C000069307930268134B9A4201D008B010BDFE
:1005D000114C636943F480236361636903F48023EE
:1005E0000193019BC02303931223049301230593DA
:1005F000032306930423079303A9084800F01CFA79
:10060000E36943F40013E361E36903F40013029325
:10061000029BDBE700540040001002400004004849
:1006200000B589B0002303930493059306930793C1
:100630000268154B9A4202D009B05DF804FB03F53D
:1006400060439A6942F480529A619A6902F4805236
:100650000192019A5A6942F400325A615B6903F4CB
:1006600000330293029BE0230393022304930023AD
:100670000593032306930523079303A94FF09040A6
:1006800000F0DAF9D8E700BF0030014000B589B0CA
:100690000023039304930593069307930268154B75
:1006A0009A4202D009B05DF804FB03F558439A69F9
:1006B00042F480429A619A6902F480420192019A5E
:1006C0005A6942F400325A615B6903F400330293C1
:1006D000029B4FF4C063039302230493002305930A
:1006E000032306930723079303A94FF0904000F0DC
:1006F000A3F9D7E70038014000B589B001460022D0
:10070000192000F057F9192000F088F9144B9A6964
:1007100042F400629A619B6903F400630193019BB8
:1007200002A903A800F05CFF00F044FF0D4BA3FBFF
:1007300000239B0C013B0C480C4A026040F2E7325C
:10074000C260436000230361836001F0B7F918B110
:10075000012009B05DF804FB034801F07FF8F8E7D9
:100760000010024083DE1B43B4050020002C014032
:100770007047FEE7FEE7FEE7FEE7704708B5024870
:1007800001F086F808BD00BFB4050020054BD3F882
:10079000882042F47002C3F888204FF000629A600B
:1007A000704700BF00ED00E0DFF834D0002103E027
:1007B0000C4B5B58435004310B480C4B42189A4287
:1007C000F6D30B4A02E0002342F8043B094B9A425D
:1007D000F9D3FFF7DBFF03F0EDF9FFF767FEFEE764
:1007E00000300020243E0008000000203C040020CF
:1007F0003C040020601F0020FEE7000008B5074A07
:10080000136843F010031360032000F0C1F80020C8
:10081000FFF772FFFFF778FE002008BD00200240BE
:10082000034A1168034B1B780B441360704700BFE9
:10083000F405002004000020014B1868704700BF39
:10084000F4050020002800F0A18038B5044690F897
:100850002030D3B12268136823F002031360FFF73E
:10086000EBFF054623685A6812F0020F10D0FFF71D
:10087000E3FF401B0A28F5D9636A43F4003363623F
:10088000052384F82030012038BDFFF75DFEE1E745
:100890001A6842F001021A60FFF7CEFF054623688E
:1008A0005A6812F0010F0DD1FFF7C6FF401B0A284E
:1008B000F5D9636A43F400336362052384F820307A
:1008C0000120E1E7227E012A3DD01A6822F0800251
:1008D0001A60637E012B3BD02268136823F040032B
:1008E0001360A37E012B39D02268136823F0200304
:1008F0001360E37E012B37D02268136843F01003A6
:100900001360237F012B35D02268136823F008037E
:100910001360637F012B33D02268136823F0040334
:100920001360A368E26813432269134362691343A7
:100930006268013A21681343CB61002060620123A1
:1009400084F82030A0E71A6842F080021A60C0E7FD
:100950002268136843F040031360C2E722681368FB
:1009600043F020031360C4E72268136823F01003E8
:100970001360C6E72268136843F008031360C8E7F2
:100980002268136843F004031360CAE7012070472C
:10099000074AD36823F4E0631B041B0C000200F435
:1009A000E060034343F0BF6343F40033D360704718
:1009B00000ED00E030B4174BDB68C3F30223C3F152
:1009C0000704042C28BF04241D1D062D18D9033B41
:1009D0004FF0FF3505FA04F421EA0401994005FAC5
:1009E00003F322EA0303194300280BDB0901C9B210
:1009F00000F1604000F5614080F8001330BC7047A2
:100A00000023E5E700F00F000901C9B2024B1954B9
:100A1000F4E700BF00ED00E014ED00E0002807DB84
:100A200000F01F02400901239340024A42F820309F
:100A3000704700BF00E100E0F0B583B0002336E06E
:100A4000032400E00024B4403C430235584E46F8ED
:100A50002540584C2568D44325EA02064F6817F410
:100A6000803F01D042EA0506524D2E606D6804EACF
:100A700005064F6817F4003F01D042EA05064D4DC8
:100A80006E60AD6804EA05064F6817F4801F01D058
:100A900042EA0506474DAE60ED682C404E6816F4FC
:100AA000001F01D042EA0504424AD46001330A68BB
:100AB00032FA03F47AD001249C402240F6D04D68EB
:100AC0006E1E012E03D9112D01D0122D12D1866870
:100AD0005F000325BD4026EA0506CD68BD403543CD
:100AE0008560466826EA04064D68C5F300149C40FC
:100AF00034434460C7685E000325B540EC4327EAF1
:100B000005078D68B5403D43C5604D68022D01D095
:100B1000122D13D1DF08083750F827E003F007053E
:100B20004FEA850C0F2505FA0CF52EEA050E0D6926
:100B300005FA0CF545EA0E0540F8275005682540F2
:100B40004C6804F00304B4402C4304604C6814F077
:100B5000805FABD0184CA56945F00105A561A4697B
:100B600004F001040194019C9D08AE1C104C54F843
:100B7000267003F00304A6000F24B44027EA0407FC
:100B8000B0F1904F3FF45EAF0C4CA0420AD004F598
:100B90008064A04208D004F58064A0423FF450AFC6
:100BA000052450E701244EE702244CE703B0F0BDD2
:100BB0000000014000040140001002400004004811
:100BC000002859D010B5044690F84130002B43D08E
:100BD000242384F841302268136823F00103136052
:100BE0006368226823F0706313612268936823F4BA
:100BF00000439360E368012B33D0A368226843F479
:100C000004439360E368022B31D02268536843F0B9
:100C1000007343F4004353602268D36823F4004315
:100C2000D360236962691343A169226843EA0123FF
:100C3000D360E369216A22680B431360226813685A
:100C400043F00103136000206064202384F84130E6
:100C5000206384F8420010BD80F84030FFF7AAFC02
:100C6000B6E7A368226843F400439360CAE72368A9
:100C70004FF400625A60C8E70120704790F8413095
:100C8000DBB2202B24D190F84030012B22D001235D
:100C900080F84030242380F841300268136823F044
:100CA000010313600268136823F480531360026821
:100CB0001368194311600268136843F0010313605D
:100CC000202380F84130002380F8403018467047D8
:100CD000022070470220704790F84130DBB2202B91
:100CE00022D190F84030012B20D0012380F84030F1
:100CF000242380F841300268136823F00103136055
:100D00000268136823F4706343EA012111600268EA
:100D1000136843F001031360202380F8413000235F
:100D200080F8403018467047022070470220704714
:100D3000002800F0018370B582B00446036813F008
:100D4000010F3BD0B54B5B6803F00C03042B1ED0A6
:100D5000B24B5B6803F00C03082B13D06368B3F548
:100D6000803F68D0002B40F0928003F1804303F570
:100D700004331A6822F480321A601A6822F480223E
:100D80001A605DE0A54B5B6813F4803FE6D04FF43A
:100D9000003393FAA3F3A14B19684FF4003393FA8D
:100DA000A3F3B3FA83F303F01F03012202FA03F360
:100DB0000B4203D06368002B00F0C082236813F05D
:100DC000020F00F0C580954B5B6813F00C0F00F02C
:100DD0009C80924B5B6803F00C03082B00F08F8023
:100DE0002369002B00F0F280012292FAA2F3B3FAF9
:100DF00083F303F1845303F584139B001A60FFF718
:100E00001BFD0546022393FAA3F3844B19680223C2
:100E100093FAA3F3B3FA83F303F01F03012202FA58
:100E200003F30B4240F0C380FFF706FD401B02288E
:100E3000E8D903208BE2794A136843F480331360C6
:100E4000764AD36A23F00F03A1680B43D362636829
:100E5000002B36D0FFF7F0FC05464FF4003393FA31
:100E6000A3F36E4B19684FF4003393FAA3F3B3FA6C
:100E700083F303F01F03012202FA03F30B429DD117
:100E8000FFF7DAFC401B6428E7D903205FE2B3F5E3
:100E9000A02F09D0614B1A6822F480321A601A68B8
:100EA00022F480221A60CBE703F18043A3F53C33A0
:100EB0001A6842F480221A601A6842F480321A607A
:100EC000BEE7FFF7B9FC05464FF4003393FAA3F3EE
:100ED000524B19684FF4003393FAA3F3B3FA83F338
:100EE00003F01F03012202FA03F30B423FF466AF43
:100EF000FFF7A2FC401B6428E6D9032027E2474BFA
:100F00005B6813F4803F7FF46BAF022393FAA3F383
:100F1000424B1968022393FAA3F3B3FA83F303F065
:100F20001F03012202FA03F30B4203D02369934209
:100F300040F006823948036823F0F8036169F8221B
:100F400092FAA2F2B2FA82F201FA02F213430360B9
:100F5000236813F0080F00F08D80A369002B61D087
:100F6000012191FAA1F2B2FA82F22D4B13449B00B7
:100F70001960FFF761FC0546022393FAA3F293FA86
:100F8000A3F293FAA3F2254A516A93FAA3F3B3FAB0
:100F900083F303F01F03012202FA03F30B4269D12A
:100FA000FFF74AFC401B0228E6D90320CFE11B488B
:100FB000036823F0F8036169F82292FAA2F2B2FA08
:100FC00082F201FA02F213430360C1E7012393FAAC
:100FD000A3F3B3FA83F303F1845303F584139B0063
:100FE00000221A60FFF728FC0546022393FAA3F3B8
:100FF0000A4B1968022393FAA3F3B3FA83F303F0BD
:101000001F03012202FA03F30B42A1D0FFF714FCE5
:10101000401B0228E9D9032099E100BF00100240DB
:1010200020819010012292FAA2F2B2FA82F2B74B1A
:1010300013449B0000221A60FFF7FEFB05460223C3
:1010400093FAA3F293FAA3F293FAA3F2B04A516A85
:1010500093FAA3F3B3FA83F303F01F03012202FA16
:1010600003F30B4206D0FFF7E7FB401B0228E6D94B
:1010700003206CE1236813F0040F00F0A980A44B57
:10108000DB6913F0805F0BD1A14BDA6942F080522B
:10109000DA61DB6903F080530193019B012500E0D5
:1010A00000259C4B1B6813F4807F10D0E368012B54
:1010B00021D063BB03F1804303F504331A6A22F0A5
:1010C00001021A621A6A22F004021A6218E0914AB6
:1010D000136843F480731360FFF7AEFB06468D4B35
:1010E0001B6813F4807FE1D1FFF7A6FB801B642807
:1010F000F5D903202BE1864A136A43F001031362FA
:10110000E368002B3CD0FFF797FB06462EE0052B4B
:1011100009D07F4B1A6A22F001021A621A6A22F081
:1011200004021A62ECE77A4B1A6A42F004021A626D
:101130001A6A42F001021A62E2E7022393FAA3F369
:10114000734B596A022393FAA3F3B3FA83F303F0C0
:101150001F03012202FA03F3194238D1FFF76CFB97
:10116000801B41F28833984200F2EC80022393FA0C
:10117000A3F293FAA3F3002BDFD0654B196AE1E7E2
:10118000FFF75AFB064618E0022393FAA3F3604BDD
:10119000596A022393FAA3F3B3FA83F303F01F030C
:1011A000012202FA03F3194211D0FFF745FB801B1D
:1011B00041F28833984200F2C780022393FAA3F2E7
:1011C00093FAA3F3002BDFD0514B196AE1E7B5BBCB
:1011D000E369002B00F0BA804D4A526802F00C021D
:1011E000082A00F09980022B2FD04FF0807393FAD9
:1011F000A3F3B3FA83F303F1845303F584139B0041
:1012000000221A60FFF718FB04464FF0007393FAB0
:10121000A3F33F4B19684FF0007393FAA3F3B3FAAB
:1012200083F303F01F03012202FA03F319426BD088
:10123000FFF702FB001B0228E7D9032087E0344AAE
:10124000D36923F08053D361C2E74FF0807393FAE0
:10125000A3F3B3FA83F303F1845303F584139B00E0
:1012600000221A60FFF7E8FA05464FF0007393FA80
:10127000A3F3274B19684FF0007393FAA3F3B3FA63
:1012800083F303F01F03012202FA03F3194206D08D
:10129000FFF7D2FA401B0228E7D9032057E01C4988
:1012A0004B6823F47413626A206A024313434B6051
:1012B0004FF0807393FAA3F3B3FA83F303F18453EB
:1012C00003F584139B0001221A60FFF7B5FA044668
:1012D0004FF0007393FAA3F30D4B19684FF00073AE
:1012E00093FAA3F3B3FA83F303F01F03012202FA84
:1012F00003F3194206D1FFF79FFA001B0228E7D932
:10130000032024E0002022E0002020E02081901033
:101310000010024000700040012B1AD0104B5B6897
:1013200003F48031226A914215D103F47013626A8A
:10133000934212D100200AE001207047012006E00C
:10134000012004E0032002E0032000E0002002B0BE
:1013500070BD0120FBE70120F9E70120F7E700BF9E
:1013600000100240164B5B6803F00C02082A01D003
:101370001448704703F470114FF4701292FAA2F2FD
:10138000B2FA82F221FA02F20F49885C0C4AD26A60
:1013900002F00F020F2191FAA1F1B1FA81F1CA40D6
:1013A0000A498A5C13F4803F05D0064BB3FBF2F385
:1013B00000FB03F07047064B03FB00F0704700BFD3
:1013C0000010024000127A00DC3D0008EC3D0008ED
:1013D00000093D00002800F0BE8070B50D460446AF
:1013E000614B1B6803F007038B420BD25E4A136804
:1013F00023F007030B431360136803F007038B42CA
:1014000040F0AB80236813F0020F06D0574A5368B0
:1014100023F0F003A1680B435360236813F0010F1E
:101420005AD06368012B2DD0022B40D0022292FAB1
:10143000A2F24E4A1068022292FAA2F2B2FA82F2A4
:1014400002F01F02012101FA02F2104200F087802F
:1014500046494A6822F0030213434B60FFF7ECF958
:101460000646424B5B6803F00C036268B3EB820FE5
:1014700032D0FFF7E1F9801B41F288339842F0D96E
:10148000032067E04FF4003292FAA2F2374A106864
:101490004FF4003292FAA2F2B2FA82F202F01F0284
:1014A000012101FA02F20242D2D1012052E04FF0B2
:1014B000007292FAA2F22D4A10684FF0007292FA6E
:1014C000A2F2B2FA82F202F01F02012101FA02F244
:1014D0001042BDD101203DE0234B1B6803F0070300
:1014E000AB420AD9204A136823F007032B43136049
:1014F000136803F00703AB4233D1236813F0040FE2
:1015000006D01A4A536823F4E063E1680B43536042
:10151000236813F0080F07D0144A536823F460536C
:10152000216943EAC1035360FFF71CFF0F4B5B685F
:1015300003F0F003F02292FAA2F2B2FA82F2D34060
:101540000B4AD35CD8400B4B18600B4B1868FFF765
:10155000D3F8002070BD012070470120FAE7012078
:10156000F8E70120F6E700BF00200240001002402B
:10157000C43D00080000002008000020014B18684E
:10158000704700BF0000002008B5FFF7F7FF074BCA
:101590005B6803F4E0634FF4E06292FAA2F2B2FAFD
:1015A00082F2D340024AD35CD84008BD001002400A
:1015B000D43D000808B5FFF7E1FF074B5B6803F473
:1015C00060534FF4605292FAA2F2B2FA82F2D34020
:1015D000024AD35CD84008BD00100240D43D000848
:1015E0000F2303600B4B5A6802F0030242605A68F3
:1015F00002F0F00282605A6802F4E062C2605B6846
:10160000DB0803F4E0630361034B1B6803F007038B
:101610000B6070470010024000200240F0B583B01C
:101620000446036813F4803F44D05C4BDB6913F03D
:10163000805F6DD1594BDA6942F08052DA61DB6923
:1016400003F080530193019B0125554B1B6813F454
:10165000807F5FD0514B1B6A13F4407321D06268C6
:1016600002F440729A421CD04C48016A21F4407640
:101670004FF4803393FAA3F2B2FA82F2494F3A441C
:1016800092004FF0010CC2F800C093FAA3F3B3FA32
:1016900083F33B449B0000221A60066211F0010FA5
:1016A0004CD13E4A136A23F4407361680B431362C2
:1016B000002D69D1236813F0010F06D0374A136B50
:1016C00023F00303A1680B431363236813F0200F77
:1016D00006D0324A136B23F01003E1680B43136307
:1016E000236813F0800F06D02C4AD36A23F4F873D2
:1016F00021690B43D362236813F4805F4BD0274AE0
:10170000136B23F4807361690B431363002043E080
:1017100000259AE7224A136843F480731360FFF7A9
:101720008BF806461E4B1B6813F4807F92D1FFF79F
:1017300083F8801B6428F5D903202DE0FFF77CF89F
:10174000064617E0022393FAA3F3144B596A0223C7
:1017500093FAA3F3B3FA83F303F01F03012202FA0F
:1017600003F30B429DD1FFF767F8801B41F28833EA
:1017700098420ED8022393FAA3F293FAA3F3002B14
:10178000E0D0064B196AE2E7D36923F08053D361B6
:1017900090E7032000E0002003B0F0BD00100240FD
:1017A0000070004000819010002853D010B504460E
:1017B0000023836290F85D30002B40D0022384F830
:1017C0005D302268136823F040031360E368B3F5CB
:1017D000E06F39D90022B3F5706F04D0B3F5E06F34
:1017E00001D00021A162216B21B9B3F5E06F2ED9A0
:1017F000022323636368A1680B4321690B4361697A
:101800000B43A16901F400710B43E1690B43216AA9
:101810000B43A06A216803430B60638B03F004034E
:10182000616A0B43616B0B43E1680B43216813430F
:101830004B6000202066012384F85D3010BD80F8E5
:101840005C30FEF7EDFEB9E74FF48052C3E70123A9
:101850002363CFE701207047704700000268D36818
:1018600043F00103D36002689168064B0B40062BDE
:1018700006D0B3F5803F03D0136843F00103136033
:10188000002070470700010070477047704770479D
:1018900010B5044603681A6912F0020F11D0DA6815
:1018A00012F0020F0DD06FF002021A6101230377CC
:1018B00003689B6913F0030F79D0FFF7E6FF00235D
:1018C000237723681A6912F0040F12D0DA6812F035
:1018D000040F0ED06FF004021A61022323772368ED
:1018E0009B6913F4407F68D02046FFF7CEFF0023AA
:1018F000237723681A6912F0080F12D0DA6812F001
:10190000080F0ED06FF008021A61042323772368B2
:10191000DB6913F0030F57D02046FFF7B6FF002313
:10192000237723681A6912F0100F12D0DA6812F0C8
:10193000100F0ED06FF010021A610823237723686E
:10194000DB6913F4407F46D02046FFF79EFF00235B
:10195000237723681A6912F0010F03D0DA6812F0B6
:10196000010F3FD123681A6912F0800F03D0DA68A3
:1019700012F0800F3DD123681A6912F4807F03D0E2
:10198000DA6812F0800F3BD123681A6912F0400F19
:1019900003D0DA6812F0400F39D123681A6912F0C7
:1019A000200F03D0DA6812F0200F37D110BDFFF7F7
:1019B0006BFF2046FFF76AFF81E72046FFF764FFD1
:1019C0002046FFF763FF92E72046FFF75DFF2046C2
:1019D000FFF75CFFA3E72046FFF756FF2046FFF71F
:1019E00055FFB4E76FF001021A612046FEF780FD53
:1019F000B8E76FF080021A61204600F07AF8BAE783
:101A00006FF480721A61204600F074F8BCE76FF042
:101A100040021A612046FFF73AFFBEE76FF020024E
:101A20001A61204600F064F8C0E700000368224A0B
:101A3000904206D0B0F1804F03D0A2F5943290428C
:101A400003D123F070034A6813431B4A904212D01B
:101A5000B0F1804F0FD0A2F5943290420BD002F536
:101A60009E32904207D002F58062904203D002F588
:101A70008062904203D123F44073CA68134323F079
:101A800080034A69134303608B68C3620B688362F7
:101A9000094B98420BD003F5A053984207D003F5A9
:101AA0008063984203D003F58063984201D10B69AB
:101AB0000363012343617047002C0140B0B110B5AE
:101AC000044690F83D3063B1022384F83D3021464E
:101AD00051F8040BFFF7AAFF012384F83D300020E2
:101AE00010BD80F83C30FFF7B7FEEDE701207047EE
:101AF000704770477047000038B504468368026934
:101B0000134342691343C2691343016808686C4A6E
:101B1000024013430B602268536823F44053E1688A
:101B20000B435360A269236A1A4321688B6823F42C
:101B3000306313438B602368624A934215D0624A34
:101B4000934228D002F58062934220D01025E369A9
:101B5000B3F5004F21D0082D00F2A680DFE805F094
:101B60006B7C86A491A4A4A49B00584B1B6B03F030
:101B70000303032B09D8DFE803F00204060C002559
:101B8000E5E70425E3E70825E1E71025DFE7002581
:101B9000DDE70225DBE70025D9E7082D48D8DFE897
:101BA00005F0051D2847334747473E00FFF7ECFC8B
:101BB0006268530803EB4003B3FBF2F39BB2A3F15B
:101BC00010014FF6EF72914271D89AB222F00F02D3
:101BD000C3F3420313432268D3606BE0FFF7EAFCD0
:101BE0006268530803EB4003B3FBF2F39BB200259A
:101BF000E5E76268530803F5740303F51053B3FB7C
:101C0000F2F39BB20025DAE7FFF7ACFB62685308FA
:101C100003EB4003B3FBF2F39BB20025CFE762680E
:101C2000530803F58033B3FBF2F39BB20025C6E7FC
:101C300001250023C3E7FFF7A7FC626800EB52030E
:101C4000B3FBF2F39BB2A3F110014FF6EF72914296
:101C50002FD82268D3602DE0FFF7ACFC626800EB60
:101C60005203B3FBF2F39BB20025ECE76268530822
:101C700003F5F40303F59053B3FBF2F39BB2002595
:101C8000E1E7FFF76FFB626800EB5203B3FBF2F38F
:101C90009BB20025D7E76268530803F50043B3FB06
:101CA000F2F39BB20025CEE701250023CBE7012507
:101CB00000E00125002323666366284638BD00BF87
:101CC000F369FFEF0038014000440040001002407B
:101CD000436A13F0010F06D00268536823F40033FF
:101CE000816A0B435360436A13F0020F06D0026807
:101CF000536823F48033C16A0B435360436A13F083
:101D0000040F06D00268536823F48023016B0B4351
:101D10005360436A13F0080F06D00268536823F437
:101D20000043416B0B435360436A13F0100F06D01E
:101D30000268936823F48053816B0B439360436A7A
:101D400013F0200F06D00268936823F40053C16B90
:101D50000B439360436A13F0400F0AD00268536844
:101D600023F48013016C0B435360036CB3F5801FA5
:101D70000BD0436A13F0800F06D00268536823F437
:101D80000023816C0B43536070470268536823F44F
:101D9000C003416C0B435360EBE72DE9F843054664
:101DA0000F4616469946DDF820802C68E46937EA2C
:101DB00004030CBF01240024B4423CD1B8F1FF3F1E
:101DC000F3D0FEF739FDA0EB0900404521D8B8F16A
:101DD000000F1ED02B681A6812F0040FE5D0DA69E4
:101DE00012F4006FE1D04FF400621A622A6813689F
:101DF00023F4D07313602A68936823F0010393607F
:101E000020236B67AB67EB67002385F870300320F6
:101E100012E02A68136823F4D07313602A68936869
:101E200023F00103936020236B67AB67002385F8E1
:101E30007030032000E00020BDE8F88330B583B0A7
:101E400004460023C367FEF7F7FC054623681B68BA
:101E500013F0080F0CD123681B6813F0040F15D181
:101E600020236367A367002084F8700003B030BDAF
:101E70006FF07E430093034600224FF4001120468A
:101E8000FFF78BFF0028E6D00320EFE76FF07E43DB
:101E900000932B4600224FF480012046FFF77DFF80
:101EA0000028DDD00320E1E768B310B50446436F96
:101EB00003B3242363672268136823F001031360CC
:101EC0002046FFF719FE012813D0636ABBB92268C8
:101ED000536823F4904353602268936823F02A03E5
:101EE00093602268136843F0010313602046FFF7F4
:101EF000A5FF10BD80F87030FEF7C8FBD9E720467B
:101F0000FFF7E6FEE3E7012070470000EFF30583EB
:101F100093B9EFF3108393B90C4B1868022804D0DF
:101F200080B90A4B01221A607047EFF31183002B2E
:101F3000F6D06FF0050070476FF0050070476FF046
:101F4000050070474FF0FF30704700BF5408002075
:101F500008B5EFF30583B3B9EFF31083B3B90E4BB4
:101F60001B68022B08D0012B13D10B4B02221A60E5
:101F700001F010F9002008BDEFF31182002AF2D021
:101F80006FF00500F7E76FF00500F4E76FF005006C
:101F9000F1E74FF0FF30EEE754080020F0B587B0CE
:101FA00000240494EFF30584002C43D1EFF3108355
:101FB000002B3FD1334B1B68022B21D0002839D096
:101FC00000238DF8173062B31568EDB1936903B93A
:101FD00018235C1E372C51D8546814F0010F4FD1D0
:101FE0005669A6B14FEA960C94682CB1D7685B2F5E
:101FF00002D9176907B106BB64B14FF0FF3416E090
:10200000EFF31183B3B9D9E70DF11705DEE74FF010
:10201000800CE9E7D46894B914699CB14FF0FF349F
:1020200005E0002418234FF0800C0DF11705012C5A
:102030000AD0ACB1049807B0F0BD0124F7E74FF027
:10204000FF34F4E70024F2E71469926802920194E5
:1020500000930B466246294601F02EF80490E9E70A
:1020600004AA019200930B461FFA8CF2294601F054
:102070005CF80128DED000230493DBE70020DAE7D8
:102080000020D8E75408002008B5EFF30583A3B972
:10209000EFF31083A3B90C4B1B68022B02D040B99D
:1020A000002008BDEFF31183002BF8D06FF005007E
:1020B000F7E701F0CFF90020F3E76FF00500F0E754
:1020C0006FF00500EDE700BF54080020034B0360EC
:1020D000034B0B6080231360704700BFF80700209C
:1020E000F8050020034B0360034B0B604FF4807333
:1020F00013607047580C00205808002000F10803B6
:1021000043604FF0FF328260C360036100230360CD
:10211000704700230361704743684B609A688A6088
:10212000516099600861036801330360704730B4FF
:102130000D68B5F1FF3F11D000F108031C465B6844
:102140001A68AA42FAD963684B6099608C60616032
:10215000086103680133036030BC70470469F2E72B
:102160000369416882688A60416851605A688242A6
:1021700006D0002202611A68013A1A601868704796
:1021800082685A60F5E7000082B0002301930D4B8E
:102190001B68B3F1FF3F08D04FF0500383F3118861
:1021A000BFF36F8FBFF34F8FFEE74FF0500383F302
:1021B0001188BFF36F8FBFF34F8F019B002BFCD0B3
:1021C00002B070470C00002008480068006880F3E7
:1021D00008884FF0000080F3148862B661B6BFF340
:1021E0004F8FBFF36F8F00DF00BF000008ED00E0EE
:1021F000DFF80C00016841F47001016070470000D5
:1022000088ED00E04FF0807340F8043C21F00101BC
:1022100040F8081C054B40F80C3C40F8202C6FF0AF
:10222000020340F8243C4438704700BF892100086D
:10223000074B19680868B0E8F04F80F30988BFF3CE
:102240006F8F4FF0000080F311887047AFF300806C
:10225000141900204FF0500383F31188BFF36F8FE0
:10226000BFF34F8F0A4A136801331360012B00D06C
:102270007047084B1B6813F0FF0FF9D04FF0500365
:1022800083F31188BFF36F8FBFF34F8FFEE700BF5B
:102290000C00002004ED00E0094B1B6843B94FF02F
:1022A000500383F31188BFF36F8FBFF34F8FFEE7A7
:1022B000013B034A13600BB983F31188704700BFD9
:1022C0000C000020000000000000000000000000E2
:1022D000EFF30980BFF36F8F154B1A681EF0100FD4
:1022E00008BF20ED108A20E9F04F10602DE90900A9
:1022F0004FF0500080F31188BFF34F8FBFF36F8F03
:1023000001F0CEF84FF0000080F3118809BC196885
:102310000868B0E8F04F1EF0100F08BFB0EC108A4C
:1023200080F30988BFF36F8F704700BFAFF3008061
:102330001419002008B54FF0500383F31188BFF340
:102340006F8FBFF34F8F00F07DFF18B1034B4FF03D
:1023500080521A60002383F3118808BD04ED00E069
:10236000084A0023136008490B60084B1B680849A2
:10237000A1FB03139B09013B06490B600723136074
:10238000704700BF10E000E018E000E0000000200F
:10239000D34D621014E000E03A4B1A683A4B9A426F
:1023A00029D0384B1A68394B9A422DD010B582B0DB
:1023B000374B1A78D2B20192FF221A701B78DBB227
:1023C0008DF803309DF8033003F05003314A137049
:1023D000314B07221A609DF8033013F0800F1CD098
:1023E0002D4A1368013B13609DF803305B00DBB29C
:1023F0008DF80330EFE74FF0500383F31188BFF3FC
:102400006F8FBFF34F8FFEE74FF0500383F31188B8
:10241000BFF36F8FBFF34F8FFEE71F4B1B68032B7C
:1024200008D04FF0500383F31188BFF36F8FBFF3D1
:102430004F8FFEE71B0203F4E063174A1360019B12
:10244000DBB2134A1370154B1A6842F470021A601B
:102450001A6842F070421A60FFF782FF0024104BA6
:102460001C60FFF7C5FE0F4A136843F0404313603A
:10247000FFF7AAFE01F014F8FFF786FE204602B02F
:1024800010BD00BF00ED00E071C20F4170C20F41EE
:1024900000E400E0B40C0020B80C002020ED00E0C7
:1024A0000C00002034EF00E0EFF305830F2B0FD971
:1024B000104A9B5CDBB2104A12789A4208D94FF05E
:1024C000500383F31188BFF36F8FBFF34F8FFEE785
:1024D0000A4B1B6803F4E063094A1268934208D967
:1024E0004FF0500383F31188BFF36F8FBFF34F8F0B
:1024F000FEE77047F0E300E0B40C00200CED00E0D4
:10250000B80C0020124A12F0070F1ED0D11D21F086
:102510000701C1F5406313440A460E4802600021DA
:1025200041601344083B23F007030B4803605960E4
:102530001960991A51601360084B1960084B1960B3
:10254000084B4FF000421A6070474FF44063E4E7D5
:10255000C00C0020CC180020BC0C0020C8180020A3
:10256000C4180020C018002010B4134B1A461B6872
:102570008342FBD35168541884420AD041684418FE
:10258000A3420BD00360904200D010605DF8044B72
:1025900070474068014451601046EFE7074C2468DB
:1025A000A34206D05B681944416013681B6803604E
:1025B000E9E70460E7E700BFCC180020BC0C00206E
:1025C00070B5044600F030FE344B1B68A3B1344BA9
:1025D0001B681C424AD134B1083414F0070F02D0F2
:1025E00024F007040834002C42D02E4B1B68A34271
:1025F0004DD32D4B1D6804E0FFF784FFE7E72B4622
:1026000015466A68A24202D22A68002AF7D1234AF4
:102610001268AA423DD01E6808362A681A606B68A4
:102620001B1B102B10D9281910F0070F08D04FF0E2
:10263000500383F31188BFF36F8FBFF34F8FFEE713
:1026400043606C60FFF790FF6A6816490B689B1A3D
:102650000B60164909688B4201D214490B60104B7C
:102660001B6813436B6000232B6002E0002600E030
:10267000002600F073FE16F0070F0CD04FF0500349
:1026800083F31188BFF36F8FBFF34F8FFEE70026F0
:10269000EFE70026EDE7304670BD00BFBC0C002020
:1026A000C0180020C4180020CC180020C818002032
:1026B00080B338B50446A0F1080550F8043C164A2A
:1026C0001268134208D14FF0500383F31188BFF30F
:1026D0006F8FBFF34F8FFEE750F8081C41B14FF0EA
:1026E000500383F31188BFF36F8FBFF34F8FFEE763
:1026F00023EA020340F8043C00F096FD54F8041C61
:10270000064A13680B4413602846FFF72DFF00F0BC
:1027100025FE38BD704700BFC0180020C418002037
:1027200010B50446FFF796FDA26BE36B9A4204D006
:102730000024FFF7B1FD204610BD0124F9E710B5D4
:102740000446FFF787FDA36B23B90124FFF7A4FD1F
:10275000204610BD0024F9E770B504461546866B87
:10276000026C5AB903681BB100200136A66370BD24
:10277000406800F0BFFF00236360F6E76DB9806832
:10278000FDF726FD226CA3681344A36062689342A0
:1027900019D32368A3602846E7E7C068FDF718FD52
:1027A000226C5142E3689B1AE3602268934202D292
:1027B00063680B44E360022D01D00020D5E726B109
:1027C000013E0020D1E72846CFE70020CDE70346B1
:1027D000026C6AB110B50846D9681144D9605C68CA
:1027E000A14201D31968D960D968FDF7F1FC10BD89
:1027F000704738B50546FFF72DFD95F8454064B2A2
:1028000003E000F061FF013C64B2002C08DD6B6A5C
:1028100033B105F1240000F0C3FE0028F3D0F0E747
:10282000FF2385F84530FFF737FDFFF713FD95F8D7
:10283000444064B203E000F047FF013C64B2002C66
:1028400008DD2B6933B105F1100000F0A9FE002866
:10285000F3D0F0E7FF2385F84430FFF71DFD38BDC6
:1028600038B5E0B10D460446FFF7F4FC2168E26B91
:10287000236C03FB021060600020A063A160013A9A
:1028800002FB0313E360FF2384F8443084F84530EF
:10289000EDB9236963B9FFF7FFFC012038BD4FF0A4
:1028A000500383F31188BFF36F8FBFF34F8FFEE7A1
:1028B00004F1100000F074FE0028ECD0084B4FF03B
:1028C00080521A60BFF34F8FBFF36F8FE3E704F1BD
:1028D0001000FFF713FC04F12400FFF70FFCDAE708
:1028E00004ED00E038B51D46049C0B4649B9246050
:1028F000E063236401212046FFF7B2FF84F84C50C7
:1029000038BD2260F4E740B94FF0500383F31188DB
:10291000BFF36F8FBFF34F8FFEE730B585B01C4616
:10292000054653B192B189B94FF0500383F3118832
:10293000BFF36F8FBFF34F8FFEE74FF0500383F36A
:102940001188BFF36F8FBFF34F8FFEE76AB150233B
:102950000393039B502B13D04FF0500383F3118844
:10296000BFF36F8FBFF34F8FFEE70029EFD04FF01B
:10297000500383F31188BFF36F8FBFF34F8FFEE7D0
:10298000012384F8463000949DF820302846FFF754
:10299000A9FF204605B030BDF0B585B0019288B1E1
:1029A0000E461D460446B1B1022D20D1E36B012B2A
:1029B0001DD04FF0500383F31188BFF36F8FBFF327
:1029C0004F8FFEE74FF0500383F31188BFF36F8FF3
:1029D000BFF34F8FFEE7036C002BE5D04FF05003A1
:1029E00083F31188BFF36F8FBFF34F8FFEE700F0C3
:1029F00071FE074658B9019B002B44D04FF050039D
:102A000083F31188BFF36F8FBFF34F8FFEE700276B
:102A100039E02A4631462046FFF79EFE626A6AB9CF
:102A200038B13C4B4FF080521A60BFF34F8FBFF369
:102A30006F8FFFF731FC012005B0F0BD04F12400D9
:102A400000F0AEFD0028F4D0324B4FF080521A60F7
:102A5000BFF34F8FBFF36F8FEBE7FFF71DFC002035
:102A6000EAE702A800F0E2FD012719E0002384F85C
:102A7000443021E0002384F8453023E02046FFF76E
:102A8000B8FE00F06BFCFFF7E5FBA26BE36B9A422C
:102A9000BFD3022DBDD0019B002BDED0002FE0D094
:102AA000FFF7FAFB00F0C0FBFFF7D4FB94F84430CB
:102AB0005BB2B3F1FF3FD9D094F845305BB2B3F1CC
:102AC000FF3FD7D0FFF7E8FB01A902A800F0BAFD4D
:102AD000C8B92046FFF724FE0028CFD0019904F1A1
:102AE000100000F029FD2046FFF783FE00F036FCC1
:102AF0000028C8D1074B4FF080521A60BFF34F8FA8
:102B0000BFF36F8FBFE72046FFF773FE00F026FC90
:102B1000002091E704ED00E02DE9F84390B18946EB
:102B200090461F460446B1B1022F20D1E36B012B22
:102B30001DD04FF0500383F31188BFF36F8FBFF3A5
:102B40004F8FFEE74FF0500383F31188BFF36F8F71
:102B5000BFF34F8FFEE7036C002BE5D04FF050031F
:102B600083F31188BFF36F8FBFF34F8FFEE7FFF73B
:102B70009BFCEFF311864FF0500383F31188BFF3F2
:102B80006F8FBFF34F8FA26BE36B9A4206D3022F76
:102B900004D0002086F31188BDE8F88394F84550EE
:102BA0006DB23A4649462046FFF7D6FDB5F1FF3FE4
:102BB00005D06B1C5BB284F845300120EAE7636AFC
:102BC0000BB90120E6E704F1240000F0E9FC30B184
:102BD000B8F1000F05D00120C8F80000DAE70120A5
:102BE000D8E70120D6E70000F0B585B0019290B19A
:102BF0000E460446C1B100F06DFD074600BB019BC7
:102C0000002B5CD04FF0500383F31188BFF36F8F1C
:102C1000BFF34F8FFEE74FF0500383F31188BFF3EC
:102C20006F8FBFF34F8FFEE7036C002BE3D04FF0A5
:102C3000500383F31188BFF36F8FBFF34F8FFEE70D
:102C400000273CE031462046FFF7C1FD013DA5636A
:102C5000236923B9FFF720FB012005B0F0BD04F183
:102C6000100000F09DFC0028F4D0354B4FF080524E
:102C70001A60BFF34F8FBFF36F8FEBE7FFF70CFBCB
:102C80000020EAE702A800F0D1FC012721E00023A0
:102C900084F8443029E0002384F845302BE02046B6
:102CA000FFF7A7FD00F05AFB09E02046FFF7A1FD62
:102CB00000F054FB2046FFF742FD00283DD1FFF70E
:102CC000C9FAA56B002DBDD1019B002BD6D0002FDA
:102CD000D8D0FFF7E1FA00F0A7FAFFF7BBFA94F8B3
:102CE00044305BB2B3F1FF3FD1D094F845305BB2D2
:102CF000B3F1FF3FCFD0FFF7CFFA01A902A800F050
:102D0000A1FC0028D1D12046FFF719FD0028C6D02C
:102D1000019904F1240000F00FFC2046FFF769FD43
:102D200000F01CFB0028CAD1054B4FF080521A60FE
:102D3000BFF34F8FBFF36F8FC1E700208DE700BF58
:102D400004ED00E0002300E00133072B0BD8064A16
:102D500052F83320002AF7D1034A42F8331002EB2D
:102D6000C303586070477047D418002070B50446FC
:102D70000D461646FFF76EFA94F844305BB2B3F195
:102D8000FF3F0DD094F845305BB2B3F1FF3F0BD05D
:102D9000FFF782FAA36B5BB12046FFF72AFD70BDF7
:102DA000002384F84430EDE7002384F84530EFE752
:102DB0003246294604F1240000F0D6FBECE700007F
:102DC000084B1B681B6823B9074B4FF0FF321A6092
:102DD0007047044B1B68DB68DB685A68024B1A605B
:102DE000704700BF18190020C01D00202DE9F047D2
:102DF00080460D4617469946089EDDF824A00A9C99
:102E00009200A521206B00F0F9FE236B07F18042B0
:102E1000013A03EB820727F0070700220F2A07D8A1
:102E2000A95CA31883F83410AB5C0BB10132F5E751
:102E3000002384F84330372E00D93726E662E66453
:102E400000252565201DFFF764F904F11800FFF740
:102E500060F92461C6F13806A6616462656584F88C
:102E600058504A4641463846FFF7CCF92060BAF13F
:102E7000000F01D0CAF80040BDE8F08738B5002443
:102E8000372C08D804EB840293000E481844FFF74F
:102E900035F90134F4E70C4D2846FFF72FF90B4CB8
:102EA0002046FFF72BF90A48FFF728F90948FFF7F2
:102EB00025F90948FFF722F9084B1D60084B1C60F3
:102EC00038BD00BF20190020981D0020AC1D002037
:102ED000C81D0020F41D0020E01D0020181900204E
:102EE0001C19002010B50446FFF7B4F9214A1368F5
:102EF00001331360204B1B685BB1204B1B686BB91F
:102F00001D4B1B68DA6AE36A9A4207D81A4B1C60A9
:102F100004E0194B1C601368012B27D0184A136872
:102F2000013313606364E06A164B1B68984201D951
:102F3000144B186000EB8000211D134B03EB800045
:102F4000FFF7EAF8FFF7A8F90C4B1B686BB10A4BC7
:102F50001B68DA6AE36A9A4207D20C4B4FF0805240
:102F60001A60BFF34F8FBFF36F8F10BDFFF786FF5F
:102F7000D4E700BF801D002014190020DC1D0020B4
:102F8000901D0020941D00202019002004ED00E079
:102F900010B5044690F8593063B1012B11D0022BC3
:102FA0000ED04FF0500383F31188BFF36F8FBFF340
:102FB0004F8FFEE7006BFFF77BFB2046FFF778FBA8
:102FC00010BDFFF775FBFBE70F4B1B68D3B110B5C6
:102FD000FFF740F90D4BDB68DC68201DFFF7C0F8F8
:102FE0000B4A1368013B1360074A1368013B1360E7
:102FF000FFF752F92046FFF7CBFF034B1B68002B6E
:10300000E6D110BD704700BF841D0020F41D0020D4
:10301000801D002008B5FFF7D7FF064B1B68012B6A
:10302000F9D9054B4FF080521A60BFF34F8FBFF3B1
:103030006F8FF0E72019002004ED00E070B5044622
:103040000D46174B1E68174B18680430FFF788F8B9
:10305000B4F1FF3F0DD03444124B1B685C60A642B4
:1030600010D9114B18680F4B19680431FFF75FF83E
:1030700070BD002DEFD00B4B196804310B48FFF7E2
:103080004BF8F5E70A4B1868064B19680431FFF74F
:103090004EF8084B1B68A342EAD9064B1C60E7E7D1
:1030A000081E0020141900201C190020E01D00201B
:1030B00018190020C01D002070B586B00B9D0C9C17
:1030C00075B1B4B15C260496049E5C2E1AD04FF004
:1030D000500383F31188BFF36F8FBFF34F8FFEE769
:1030E0004FF0500383F31188BFF36F8FBFF34F8FFF
:1030F000FEE74FF0500383F31188BFF36F8FBFF3E8
:103100004F8FFEE72563022584F85950002503956B
:10311000029405AD01950A9D0095FFF767FE2046D4
:10312000FFF7E0FE059806B070BD2DE9F04385B0CD
:103130000746884614461E469000FFF741FA00B342
:1031400081465C20FFF73CFA0546B0B1C0F83090EC
:10315000E5B1002385F85930039302950D9B019347
:103160000C9B00933346224641463846FFF73EFE0D
:103170002846FFF7B7FE012005E04846FFF798FA1A
:10318000E6E74FF0FF3005B0BDE8F0834FF0FF30C9
:10319000F9E7000010B588B000240594069407AA4A
:1031A00006A905A8FEF792FF059B0293069B0193D3
:1031B00000942346079A17491748FFF77DFF48B147
:1031C00000F04CFB0346012B06D0B3F1FF3F18D0B3
:1031D00008B010BD0023F6E74FF0500383F31188C9
:1031E000BFF36F8FBFF34F8F0C4B4FF0FF321A605E
:1031F0000B4B01221A600B4B00221A60FFF7CCF830
:10320000E6E74FF0500383F31188BFF36F8FBFF3EE
:103210004F8FFEE7FC3D000815300008C01D002060
:10322000DC1D0020081E0020024A136801331360D1
:10323000704700BF8C1D0020014B1868704700BF0D
:10324000081E0020F8B53A4B1B68002B65D1394B9E
:103250001D6801351D60C5B9374B1B681B6843B13C
:103260004FF0500383F31188BFF36F8FBFF34F8F7D
:10327000FEE7314A1168314B186810601960304A16
:10328000136801331360FFF79BFD2E4B1B68AB42A5
:103290000CD900242C4B1B68DB6A03EB83039A00D8
:1032A0002A4B9B58012B3DD901243BE0002416E01A
:1032B000244B4FF0FF321A60ECE7224A1360E9E733
:1032C00003EB83039A00394620481044FEF724FF9D
:1032D000F26A1D4B1B68DB6A9A4200D30124164B2D
:1032E0001B681B68002BE3D0134B1B68DB68DE6890
:1032F00073689D42E1D3371D3846FEF731FFB36A4C
:103300001BB106F11800FEF72BFFF36A104A126892
:103310009342D5D90E4A1360D2E70E4A136801339F
:10332000136000240C4B1B6803B101242046F8BD38
:103330008C1D0020081E0020181900201C190020D8
:10334000C41D0020C01D00201419002020190020D9
:10335000941D0020881D00200C1E002038B5344B21
:103360001B6843B94FF0500383F31188BFF36F8F8D
:10337000BFF34F8FFEE7FEF76DFF2D4B1A68013A42
:103380001A601B68002B4DD12A4B1B680BB9002417
:1033900049E00024284B1B681BB3274BDB68DC6823
:1033A00004F11800FEF7DCFE251D2846FEF7D8FEC6
:1033B000E06A224B1B68984201D9204B186000EB51
:1033C000800029461E4B03EB8000FEF7A5FEE26A53
:1033D0001C4B1B68DB6A9A42DCD31B4B01221A6030
:1033E000D8E70CB1FFF7ECFC184B1C6874B9164B0E
:1033F0001C68C4B1164B4FF080521A60BFF34F8F58
:10340000BFF36F8F01240EE0013C07D0FFF71AFFD6
:103410000028F9D00C4B01221A60F5E70B4B002273
:103420001A60E4E70024FEF737FF204638BD00BFEE
:103430008C1D0020801D0020C81D0020941D002030
:1034400020190020141900200C1E0020881D0020C7
:1034500004ED00E010B5A8B104460F4B1B6843B162
:103460004FF0500383F31188BFF36F8FBFF34F8F7B
:10347000FEE7FFF7D9FE00212046FFF7DFFDFFF74B
:103480006DFF38B9054B4FF080521A60BFF34F8F74
:10349000BFF36F8F10BD00BF8C1D002004ED00E056
:1034A000204B1B681BB1204B01221A6070471E4B3A
:1034B00000221A601D4B1B6803EB83018A001C4924
:1034C0008A585AB90BB1013BF6E74FF0500383F32A
:1034D0001188BFF36F8FBFF34F8FFEE710B403EB7C
:1034E000830082000A4450684068506003EB830404
:1034F000A20014460832114488420DD003EB830227
:1035000091000B4A0A445268D1680A4A1160074A7E
:1035100013605DF8044B70474068054A22445060D0
:10352000ECE700BF8C1D00200C1E0020941D002025
:10353000201900201419002058B110B50C46094B71
:1035400019681831FEF7F3FD01212046FFF776FDDB
:1035500010BD4FF0500383F31188BFF36F8FBFF39B
:103560004F8FFEE71419002038B570B10C46154690
:103570000A4B19681831FEF7CFFD0DB14FF0FF343B
:1035800029462046FFF75AFD38BD4FF0500383F31C
:103590001188BFF36F8FBFF34F8FFEE71419002020
:1035A00038B5C368DC6824B304F118052846FEF773
:1035B000D7FD184B1B682BBB251D2846FEF7D0FDF9
:1035C000E06A154B1B68984201D9134B186000EB59
:1035D00080002946114B03EB8000FEF79DFDE26A57
:1035E0000F4B1B68DB6A9A4211D901200D4B186002
:1035F0000EE04FF0500383F31188BFF36F8FBFF3DA
:103600004F8FFEE729460848FEF786FDE7E70020D2
:1036100038BD00BF8C1D0020941D00202019002003
:10362000141900200C1E0020C81D0020034B1B682D
:103630000360034B1B684360704700BFC41D00203C
:10364000081E0020F8B5C8B10C460546F9B1FEF7D2
:1036500001FE1B4B19686B68C81A2268B2F1FF3F64
:1036600026D02F68174E3668B74201D08B4224D936
:10367000824215D80023236001241AE04FF0500342
:1036800083F31188BFF36F8FBFF34F8FFEE74FF0C7
:10369000500383F31188BFF36F8FBFF34F8FFEE7A3
:1036A0005B1A134423602846FFF7C0FF002400E0A4
:1036B0000024FEF7F1FD2046F8BD0124F9E700BF24
:1036C000081E0020C41D0020014B01221A60704713
:1036D0000C1E0020054B1B6833B1054B1B680BB15A
:1036E000002070470220704701207047DC1D002039
:1036F0008C1D002000283BD038B504461E4B1B68AB
:10370000834208D04FF0500383F31188BFF36F8FCB
:10371000BFF34F8FFEE7036D43B94FF0500383F3C0
:103720001188BFF36F8FBFF34F8FFEE7013B036537
:10373000C16AC26C91421DD00BB1002038BD051D7D
:103740002846FEF70DFDE06CE062C0F13803A3618E
:103750000A4B1B68984201D9084B186000EB8000A7
:103760002946074B03EB8000FEF7D6FC0120E5E776
:10377000002070470020E1E714190020941D00206C
:1037800020190020064B1A681368B3FA83F35B090B
:10379000036013B9D368186870470020704700BFF2
:1037A000101E002008B54160006191420CD8D21A69
:1037B00083699A4201D3012008BD011D094B186895
:1037C000FEF7B5FC0020F7E79A4201D2994206D2F3
:1037D000011D054B1868FEF7AAFC0020ECE701204C
:1037E000EAE700BF141E0020101E002030B583B091
:1037F000FEF730FD114B1B681BB1FEF74DFD03B00A
:1038000030BD0F4D2846FEF779FC0E4C2046FEF7E2
:1038100075FC0D4B1D600D4B1C60002300930C4B81
:103820000C4A10210A20FFF76EF8044B186000289C
:10383000E3D00949FFF786FADFE700BF341F002015
:10384000B81E0020CC1E0020101E0020141E0020D8
:10385000E41E0020181E0020043E000810B588B0A9
:10386000FFF7C4FF124B1B68CBB1002405940694EC
:1038700007AA06A905A8FEF735FC059B0293069B3F
:103880000193022300932346079A0A490A48FFF747
:1038900013FC0A4A106010B1012008B010BD4FF0AF
:1038A000500383F31188BFF36F8FBFF34F8FFEE791
:1038B000341F00200C3E00089D3B0008381F0020EC
:1038C000C0B110B584B014461A46034616480068C5
:1038D00038B300910194029305291CDCFFF7FAFE2E
:1038E000022810D000231A4669460F480068FFF7E7
:1038F00053F814E04FF0500383F31188BFF36F8F38
:10390000BFF34F8FFEE70023069A6946064800681A
:10391000FFF742F803E000236946FFF7FDF804B023
:1039200010BD0020FBE700BF341F002070B582B03F
:103930001A4B1B681A6852B3DB681E68DC68251DC9
:103940002846FEF70DFC636A20469847E369012B81
:10395000EED1A36933449E4207D2636024612946B5
:103960000E4B1868FEF7E3FBE2E7002100910B46DF
:1039700032462046FFF7A4FF0028D9D14FF050036C
:1039800083F31188BFF36F8FBFF34F8FFEE7044AB5
:10399000106802490860136002B070BD101E00205C
:1039A000141E002038B50546FFF746FC0446074BB9
:1039B0001B68834205D800232B60044B1C60204603
:1039C00038BDFFF7B3FF01232B60F6E7E01E0020B0
:1039D00070B582B005460E46144B1B68DB68DC6888
:1039E000201DFEF7BDFBE369012B04D0636A20466E
:1039F000984702B070BDA1692B4632462944204643
:103A0000FFF7D0FE0028F1D0002100910B462A4696
:103A10002046FFF755FF0028E8D14FF0500383F30D
:103A20001188BFF36F8FBFF34F8FFEE7101E00208A
:103A300070B582B006460C46FFF7F6FB01A8FFF70B
:103A4000B1FF019B1BBB05460CB9B04218D22CB18B
:103A5000114B1B681C68B4FA84F464092246711B7C
:103A60000E4B1868FFF782F9FFF778FC88B90C4B0A
:103A70004FF080521A60BFF34F8FBFF36F8F08E093
:103A8000FFF76CFC29463046FFF7A2FF01E0FFF785
:103A900065FC02B070BD00BF141E0020341F002062
:103AA00004ED00E010B588B006E007990698059B84
:103AB0009847049B002B0BDA002204A9364B1868A8
:103AC000FFF792F8002865D0049B002BF1DAECE7B1
:103AD000069C636913B1201DFEF742FB03A8FFF7A4
:103AE00061FF049B092BE7D801A252F823F000BF25
:103AF000193B0008193B0008193B0008B93A0008B7
:103B00005F3B0008853B0008193B0008193B000893
:103B1000B93A00085F3B0008059BA16902461944B9
:103B20002046FFF73FFE0028C6D0636A204698472C
:103B3000E369012BC0D1A269002100910B460598D1
:103B400002442046FFF7BCFE0028B5D14FF05003D9
:103B500083F31188BFF36F8FBFF34F8FFEE7059993
:103B6000A16131B10346024601442046FFF71AFE27
:103B7000A2E74FF0500383F31188BFF36F8FBFF3B9
:103B80004F8FFEE794F82C30002B95D12046FEF79E
:103B90008FFD91E708B010BD341F002000B583B041
:103BA00001A8FFF7EFFD0199FFF742FFFFF77AFF4A
:103BB000F6E7000070B50D4E0D4D761BB61006D021
:103BC000002455F8043B01349847A642F9D1094E28
:103BD000094D761B00F0D2F8B61006D0002455F837
:103BE000043B01349847A642F9D170BD183E000845
:103BF000183E0008203E0008183E0008F0B4860772
:103C000046D0541E002A3CD0CAB2034601E0013C13
:103C100037D303F8012B9D07F9D1032C2AD9CDB254
:103C200045EA05250F2C45EA054534D9A4F11002D3
:103C300022F00F0C03F120071609674403F110026C
:103C400042E9045542E902551032BA42F8D1721CD9
:103C500014F00C0F03EB021204F00F0613D0331F05
:103C600023F003030433134442F8045B9342FBD173
:103C700006F003042CB1CAB21C4403F8012B9C4289
:103C8000FBD1F0BC704734461346002CF3D1F8E763
:103C900014460346C1E71A462646E0E7024B13B135
:103CA000024800F005B8704700000000BD3C000865
:103CB000002301461A46184600F01AB838B5084BDA
:103CC000084D5B1B9C1007D0043B1D44013C55F87C
:103CD00004399847002CF9D1BDE8384000F054B8B9
:103CE000243E0008203E0008704700BF704700BF18
:103CF0002DE9F047DFF880A00646DAF80000984684
:103D00000F469146FFF7F0FF1A4B1B68D3F8484166
:103D100024B365681F2D26DC5EB9AB1C0135DAF8CB
:103D20000000656044F82370FFF7E0FF0020BDE865
:103D3000F08704EB85030121C3F88890D4F888212B
:103D4000A9400A43022EC4F88821C3F80881E4D1AF
:103D5000D4F88C311943C4F88C11DEE703F5A6744E
:103D6000C3F84841D5E7DAF80000FFF7BFFF4FF08E
:103D7000FF30DCE7143E000838040020F8B500BF2F
:103D8000F8BC08BC9E467047F8B500BFF8BC08BC3C
:043D90009E46704794
:103D940064656661756C745461736B00943D0008CE
:103DA400000000000000000000000000000000000F
:103DB40000020000180000000000000000000000E5
:103DC40000000000000000000102030406070809C7
:103DD40000000000010203040203040506070809A9
:103DE4000A0B0C0D0E0F1010010203040506070840
:103DF400090A0B0C0D0E0F1049444C45000000003D
:103E0400546D725100000000546D722053766300AB
:043E1400100000207A
:083E18009D3C0008B501000803
:043E20009101000804
:103E240000127A000100000010000000AAAAAAAA49
:103E340000000000FC02002064030020CC030020EA
:103E4400000000000000000000000000000000006E
:103E5400000000000000000000000000000000005E
:103E6400000000000000000000000000000000004E
:103E7400000000000000000000000000000000003E
:103E8400000000000000000000000000000000002E
:103E9400000000000000000000000000000000001E
:103EA400000000000000000000000000000000000E
:103EB40000000000000000000000000000000000FE
:103EC40000000000000000000000000000000000EE
:103ED40000000000000000000100000000000000DD
:103EE4000E33CDAB34126DE6ECDE05000B000000A2
:103EF40000000000000000000000000000000000BE
:103F040000000000000000000000000000000000AD
:103F1400000000000000000000000000000000009D
:103F2400000000000000000000000000000000008D
:0C42540000000000000000003C1F0020E3
:04000005080007A93F
:00000001FF
